:020000040800F2
:10000000600400206D120008491200084B1200081D
:100010004D1200084F1200085112000800000000A5
:100020000000000000000000000000005312000863
:10003000551200080000000057120008591200086D
:10004000891200088D12000891120008951200080C
:10005000991200089D120008A1120008A5120008BC
:10006000A9120008AD120008B1120008B51200086C
:10007000B9120008BD120008C1120008C51200081C
:10008000C9120008CD120008D1120008D5120008CC
:10009000D9120008DD120008E1120008E51200087C
:1000A000E9120008ED120008F1120008F51200082C
:1000B000F9120008FD1200080113000805130008DA
:1000C000091300080D130008111300081513000888
:1000D000191300081D130008211300082513000838
:1000E000291300082D1300083113000835130008E8
:1000F000391300083D130008411300084513000898
:10010000491300084D130008511300085513000847
:10011000591300085D1300086113000865130008F7
:10012000691300086D1300087113000875130008A7
:10013000791300087D130008811300088513000857
:10014000891300088D130008911300089513000807
:10015000991300089D130008A1130008A5130008B7
:10016000A9130008AD130008B1130008B513000867
:10017000B9130008BD130008C113000800000000F7
:10018000C5130008C913000870B5044600250CB952
:10019000012070BD04F13C06706820B9204600F0D3
:1001A0005DFAB56035707068C00610D4706820F4D0
:1001B000885040F002007060204600F0ADF9B56054
:1001C000706820F0020040F00100706000E001253E
:1001D00000203070284670BD18B500F0DBF801D162
:1001E000022012BD00F0E2F830D500F0C0F846BFA2
:1001F0008B6823F00603002300F0A9F800F0AEF8A6
:1002000019D188420FD0DFF8FC13884204D111685D
:1002100011F01F0F1CD106E0DFF8EC13884217D154
:1002200000F08CF814D200F08EF811D1816841F002
:10023000804181600CE0884202BFDFF8D003016892
:1002400011F0405F04D100F0ACF801E000F06DF86F
:10025000002012BD00F13C010A78012A01D10220E0
:10026000704701220A70026893685B085B00936024
:1002700000688068C00705D4486820F4885040F0C2
:1002800001004860B0E0F8B50E46044604F13C05B4
:100290002068816849050AD58068C00507D5686867
:1002A00040F020006860002028700120F2BD00F0BE
:1002B0000BFA074620680168890714D416F1010F6C
:1002C000F8D026B100F000FAC01B8642F2D22068B6
:1002D00000688007EED4686840F004006860002081
:1002E00028700320F2BD6FF012010160686840F4CD
:1002F00000706860206800F026F804BF217E0029A5
:1003000011D1C16A11F4700F02D0806840050AD47F
:10031000686820F4807068606868C00403D4686806
:1003200040F0010068600020F2BD486840F0100015
:100330004860886840F0010088607047116801F0EB
:100340001F0110297047816811F0405F70478B6072
:1003500000230B706FF02201116070470068DFF816
:10036000B022DFF8B012136813F01F0F70474B680C
:10037000DFF8A442234043F480734B6053685B056D
:1003800005D54B6823F4005343F480534B604B680E
:10039000DB0470470021009100F13C010A78012A3A
:1003A0007047016841F080410160704701220A7086
:1003B00002689368DB0713D4936843F001039360EA
:1003C000DFF85822DFF858321268B2FBF3F202EB82
:1003D000420201E0009A521E0092009A002AF9D1CE
:1003E00002689368DB077047002008707047006858
:1003F000C06C704738B50022009290F83C20012A6A
:1004000001D1022032BD012280F83C2007240B6874
:1004100002680A2B10D30A3BD56803EB430300F0B4
:1004200076F8D360D3680D688C680A3D05EB450506
:10043000AC402343D3600DE0156903EB430300F0A8
:1004400066F8136113690D688C6805EB4505AC40CF
:10045000234313611F244B68072B0CD25B1E556B83
:1004600000F053F85363536B4D680C886D1E00F019
:1004700047F853631AE00D2B0CD2DB1F156B00F00D
:1004800044F81363136B4D680C88ED1F00F038F8C7
:1004900013630BE00D3BD56A00F037F8D362D36AE3
:1004A0004D680C880D3D00F02BF8D362594B9A42F1
:1004B00021D10B68564A122B03D1136843F48003F1
:1004C00013600B68102B18BF112B14D1136843F461
:1004D00000031360096810290DD15049504A09687A
:1004E000B1FBF2F10A22514301E00099491E00914B
:1004F00000990029F9D1002180F83C10002032BD7C
:1005000005EB8505AC402343704703EB830304FAF6
:1005100003F325EA030370473D490A6822F4403299
:100520000A600A6843681A430A6001684A6822F44C
:1005300080724A604A68036942EA03224A604A6854
:1005400022F040724A604A6883681A434A608A68A7
:1005500022F400628A608A68C3681A438A60314B59
:10056000826A9A428A6822F070628A608A680AD037
:10057000836A1A438A608A6822F040528A608A68D5
:10058000C36A1A4301E022F040528A608A6822F06E
:1005900002028A608A68037E42EA43028A6090F817
:1005A0002020002A4A680CD042F400624A604A685F
:1005B00022F460424A604A68436A5B1E42EA433260
:1005C00001E022F400624A60CA6A22F47002CA6240
:1005D000CA6AC3695B1E42EA0352CA628A6822F48D
:1005E00000728A608A6890F8303042EA43228A605A
:1005F0008A6822F480628A608A68406942EA8020C0
:10060000886070470021014000220140082001401D
:100610000423014000200140FEF9FFFF0C000020F0
:1006200040420F000100000F81B0002000902248DE
:10063000416841F480414160416801F4804100918A
:10064000009900210091016841F08051016000682B
:1006500000F080500090009801B0704710B586B04F
:10066000044601A8142100F035F820681349884297
:1006700020D1002000901248416941F4807141610D
:10068000416901F480710091009900210091016895
:1006900041F00101016001A9006800F00100009033
:1006A000009801200190032002900020039005484B
:1006B00000F014F806B010BD4038024000200140A0
:1006C000303802400000024001484068704700BFD7
:1006D00000000020002200F0F3B800002DE9F84FE0
:1006E00000226C4BDFF8B081DFF8B0914FF00F0AB9
:1006F000012505FA02F40D6804EA050BA34540F054
:10070000C2804FEA420C032505FA0CF56FEA050E8C
:100710004D6805F00306012E1CBF05F00305022DF0
:1007200010D18568CE680EEA050506FA0CF6354349
:100730008560456825EA04044D68C5F300159540B9
:100740002C43446094000D7905F00305032D1ED061
:10075000C5688E680EEA050506FA0CF63543C560D5
:100760000D7905F00305022D11D1D50800EB8505A3
:1007700004F01C072E6A0AFA07F7BE43009604F03D
:100780001C060F6907FA06F6009F3E432E620568B5
:100790000EEA05060D7905F0030505FA0CF535435B
:1007A00005604D6815F4403F6DD0002500954FEA77
:1007B000920CD9F8005045F48045C9F8005004F077
:1007C0000C06D9F8005005F4804500950AFA06F4A5
:1007D000009D58F82C5025EA0404314DA84208BF6A
:1007E000002522D02F4DA84208BF01251DD02E4D37
:1007F000A84208BF022518D02C4DA84208BF0325E7
:1008000013D02B4DA84208BF04250ED0294DA84275
:1008100008BF052509D0284DA84208BF062504D0E9
:10082000264DA8420CBF07250825B5402C4348F8A3
:100830002C406FEA0B059C6805EA040E4C68E40244
:1008400048BF4BEA0E0EC3F808E0DC6805EA040E68
:100850004C68A40248BF4BEA0E0EC3F80CE05C687B
:1008600005EA040E4C68A40348BF4BEA0E0EC3F819
:1008700004E01C6805EA040C4C68E40348BF4BEA3A
:100880000C0CC3F800C0521C102AFFF431AFBDE8B5
:10089000F18F0000003C014008380140443802401C
:1008A000000002400004024000080240000C024028
:1008B000001002400014024000180240001C0240D8
:1008C00000B500BF130096469446103928BFA0E833
:1008D0000C50FAD85FEA417C28BF0CC048BF40F8F2
:1008E000042BC90728BF20F8022B48BF00F8012BB2
:1008F00000BD00002DE9F843040015D02078BB4D61
:10090000C00713D5A86800F00C00042807D0A86819
:1009100000F00C0008283CD16868400239D52868EE
:10092000800303D56068002800F05A812078B04E1B
:10093000800719D5A86810F00C0F07D0A86800F040
:100940000C00082855D16868400252D428688007F6
:1009500003D5E068012840F043812868216920F030
:10096000F80040EAC1002860207800076BD5616973
:10097000A04800295AD001210160FFF7A5FE0746D3
:10098000686F80075FD4FFF79FFEC01B0328F7D373
:1009900001E16068B0F5803F06D0B0F5A02F28686F
:1009A00006D140F480202860286840F4803005E0BB
:1009B00020F480302860286820F480202860606857
:1009C00058B1FFF781FE074628688003AED4FFF7D1
:1009D0007BFEC01B6528F7D3DDE0FFF775FE0746F9
:1009E00028688003A2D5FFF76FFEC01B6528F7D3E8
:1009F000D1E0E06868B101203060FFF765FE07468E
:100A000028688007A9D4FFF75FFEC01B0328F7D32F
:100A1000C1E03060FFF758FE074628688007A3D57D
:100A2000FFF752FEC01B0328F7D3B4E00160FFF7C5
:100A30004BFE0746686F800705D5FFF745FEC01BD4
:100A40000328F7D3A7E02078400761D5286CC000C1
:100A50004FF000080CD4CDF800804FF00108286C4E
:100A600040F080502864286C00F08050009000987E
:100A7000DFF88491D9F80000C00512D4D9F800003D
:100A800040F48070C9F80000FFF71EFE0746D9F851
:100A90000000C00505D4FFF717FEC01B0328F6D3DE
:100AA00079E0A068012805D00528286F06D140F01C
:100AB00004002867286F40F0010005E0400840006E
:100AC0002867286F20F00400286741F28939A06860
:100AD00058B1FFF7F9FD0746286F800711D4FFF7DB
:100AE000F3FDC01B4845F7D355E0FFF7EDFD074682
:100AF000286F800705D5FFF7E7FDC01B4845F7D3F2
:100B000049E0B8F1000F03D0286C20F08050286431
:100B1000A069002866D0A96801F00C0108293CD022
:100B200002282BD100203066FFF7CEFD074628684B
:100B3000800105D5FFF7C8FDC01B0328F7D32AE0C5
:100B4000E069216A0843616A40EA8110A16A891E4E
:100B5000C903090C40EA0140E16A40EA01606860AB
:100B600001203066FFF7B0FD07462868800139D4C0
:100B7000FFF7AAFDC01B0328F7D30CE00020306666
:100B8000FFF7A2FD0746286880012BD5FFF79CFDE3
:100B9000C01B0328F7D3032025E0012820D0686874
:100BA000E26900F48001914202BF00F03F01226A35
:100BB000914201BF47F6C0710140626AB1EB821FEA
:100BC0000ED1A26A921ED20300F44031120CB1EB96
:100BD000024F02BF00F07060E16AB0EB016F01D01C
:100BE000012000E00020BDE8F28300BF0038024091
:100BF00000004742800E47420070004010B5584C3C
:100C00002046FFF7E9FA57492046FFF73CFB20B999
:100C10002046FFF7ECFB544908802046BDE8104011
:100C2000FFF718BB10B586B000F0CEF800F048F81A
:100C30000020009001AC4D48016841F08001016046
:100C4000016801F080010091009900210091016884
:100C500041F001010160006800F00100009000987F
:100C60000FF254100FC884E80F003D4C404820603C
:100C70004FF4803060600020A0602061207684F80E
:100C80002000E0623B48A0620020E0600120E061BB
:100C9000002084F83000012060612046FFF774FADC
:100CA00000F06EF8019001A901200290002003904D
:100CB0002046FFF79FFB00F063F8FFF79FFFFCE77C
:100CC00000B593B00FF2C00106A891EC0C0B80ECBC
:100CD0000C0B01A81421FFF7FDFC00200090264812
:100CE000016841F080510160006800F08050009080
:100CF0000098002000902148016841F48041016083
:100D0000006800F4804000900098022006900120C6
:100D1000099010200A9002200C9000200D900820CD
:100D20000E90A8200F90022010900420119006A889
:100D3000FFF7E0FD00F024F80F20019005210220CC
:100D40000290002003904FF4A05004904FF4805084
:100D5000059001A800F052F800F012F813B000BDA1
:100D600010000020A086010058000020303802400A
:100D7000002001400100000F403802400070004098
:100D800008B172B6FEE770470000000000000000E6
:100D90000000000000000000000000000000000053
:100DA0000000000000000000000000000000000043
:100DB0000000000000000000000000000000000033
:100DC000000000000000000080B50B48016841F4FD
:100DD00000710160016841F480610160016841F4C3
:100DE00080710160032000F0D0F80F2000F016F9A8
:100DF000FFF71AFC002002BD003C02402DE9F04143
:100E000004000D4652D03F4E00F077F802D200F0B9
:100E100073F84BD120683C4F810712D5400703D5AA
:100E2000B86840F4E050B8602078000703D5B8688F
:100E300040F46040B860B868A16820F0F000084352
:100E4000B8602078C00729D56068012802D13968C8
:100E5000890305E0022818BF032803D139688901F6
:100E600003D423E03968890720D5B968890840EAA6
:100E70008100B860FFF728FC8046B868616800F020
:100E80000C00B0EB810F09D0FFF71EFCA0EB0800AF
:100E900041F289318842F0D303202BE0306800F022
:100EA0000700854204D200F027F801D0012021E09C
:100EB0002078400705D5B868E16820F4E050084381
:100EC000B8602078000706D5B868216920F4604032
:100ED00040EAC100B86000F01FF8BA680B49C2F3DD
:100EE0000312895CC8400A4908600A48006800F09B
:100EF00095F80020BDE8F0813570306800F00700FB
:100F0000A8427047003C024000380240F41100083B
:100F10000C0000200800002010B5124C606800F0A2
:100F20000C00042802D0082802D019E00E4810BD99
:100F3000206800F03F022068002340022068C0F3D0
:100F400088104CBF08490949A1FB000100F086F850
:100F50002168C1F30141491C4900B0FBF1F010BD0B
:100F6000024810BD0438024000127A000024F40048
:100F70000901020002D4244881547047234802F03A
:100F80000F02104400F8041C704721490A684FF60C
:100F9000FF0300021A4000F4E06010431D4A1043B2
:100FA0000860704738B51A4B1B68C3F30223C3F1BE
:100FB0000704052C28BF04241D1D072D34BF002362
:100FC000DB1E012505FA04F4641E2140994005FA50
:100FD00003F35B1E1A401143BDE83440C8E710B567
:100FE000401EB0F1807F01D3012010BD0A4C60602B
:100FF0000F214FF0FF30FFF7BBFF0020A06007205C
:101000002060002010BD000000E400E018ED00E0CA
:101010000CED00E00000FA0510E000E038B50D4DE1
:10102000297804464FF47A70B0FBF1F00A49096858
:10103000B1FBF0F0FFF7D3FF50B9102C08D200221B
:1010400021464FF0FF30FFF7ADFFAC60002032BD0E
:10105000012032BD000000200C0000201B4213D1F3
:10106000094236D12AB18446B0FBF2F002FB10C22D
:10107000704700F06BB8FCD30022002370470B00D0
:101080000200002100207047904271EB030CF6D360
:1010900070B5B1FA81F4B3FA83F52C1BA340C4F107
:1010A000200532FA05F63343A2405FF00046E640E1
:1010B00002E05B085FEA3202841A71EB030524BF89
:1010C000204629467641F4D302000B00300000216F
:1010D00070BD012ACFD970B5140C20D0B1FA81F4BB
:1010E000B2FA82F5C4F120046419B4F12006D6D313
:1010F000B2405FF00044F440002502E052085FEA8D
:101100003303C61A71EB020E24BF304671466441A8
:101110006D41F3D302000B002000290070BD0C4686
:10112000B1FBF2F102FB11452D0445EA1045B5FB78
:10113000F2F402FB145580B240EA0545B5FBF2F02B
:1011400002FB105240EA044070BD0000704730B509
:10115000016842688468014401EB5203D20748BF2A
:101160004C44994201D10C3030BD11F9012B11F8DA
:10117000015B002A04F8015B02D5521CF9D1F0E7AB
:10118000521EF4D5EDE7000010B507497944183137
:10119000064C7C44163404E00A68081D1144884754
:1011A0000146A142F8D110BD2C000000380000001B
:1011B0004EF68851CEF20001086840F470000860D5
:1011C000BFF34F8FBFF36F8F4FF00070E1EE100A47
:1011D000704700007BFFFFFFF40100001A000000D1
:1011E000000000200248016841F47001016070476E
:1011F00088ED00E000000000000000000102030490
:101200000607080900F00BF8002801D0FFF7BCFF23
:101210000020AFF30080FFF705FD00F002F8012089
:10122000704700F001B800000746384600F002F8A9
:10123000FBE7000080B5AFF30080024A11001820E0
:10124000ABBEFBE726000200FEE7FEE7FEE7FEE797
:10125000FEE770477047704700F000B802484168E9
:1012600002788918416070470000002001488047DB
:1012700001480047E51100087D120008AFF3008027
:10128000FFF796FFFFF7BEFFFFF7FEBFFFF7FEBFBA
:10129000FFF7FEBFFFF7FEBFFFF7FEBFFFF7FEBF82
:1012A000FFF7FEBFFFF7FEBFFFF7FEBFFFF7FEBF72
:1012B000FFF7FEBFFFF7FEBFFFF7FEBFFFF7FEBF62
:1012C000FFF7FEBFFFF7FEBFFFF7FEBFFFF7FEBF52
:1012D000FFF7FEBFFFF7FEBFFFF7FEBFFFF7FEBF42
:1012E000FFF7FEBFFFF7FEBFFFF7FEBFFFF7FEBF32
:1012F000FFF7FEBFFFF7FEBFFFF7FEBFFFF7FEBF22
:10130000FFF7FEBFFFF7FEBFFFF7FEBFFFF7FEBF11
:10131000FFF7FEBFFFF7FEBFFFF7FEBFFFF7FEBF01
:10132000FFF7FEBFFFF7FEBFFFF7FEBFFFF7FEBFF1
:10133000FFF7FEBFFFF7FEBFFFF7FEBFFFF7FEBFE1
:10134000FFF7FEBFFFF7FEBFFFF7FEBFFFF7FEBFD1
:10135000FFF7FEBFFFF7FEBFFFF7FEBFFFF7FEBFC1
:10136000FFF7FEBFFFF7FEBFFFF7FEBFFFF7FEBFB1
:10137000FFF7FEBFFFF7FEBFFFF7FEBFFFF7FEBFA1
:10138000FFF7FEBFFFF7FEBFFFF7FEBFFFF7FEBF91
:10139000FFF7FEBFFFF7FEBFFFF7FEBFFFF7FEBF81
:1013A000FFF7FEBFFFF7FEBFFFF7FEBFFFF7FEBF71
:1013B000FFF7FEBFFFF7FEBFFFF7FEBFFFF7FEBF61
:1013C000FFF7FEBFFFF7FEBFFFF7FEBF0001F9000A
:0913D0000010FC000124F4B5003A
:040000050800127D60
:00000001FF
